:020000040800F2
:1000000040BF002059030008EF4D00086D4500086F
:10001000ED4D0008851B0008915800080000000005
:10002000000000000000000000000000990200082D
:10003000871B000800000000F5020008215200089C
:1000400073030008730300087303000873030008B8
:1000500073030008730300087303000873030008A8
:100060007303000873030008730300087303000898
:100070007303000873030008730300087303000888
:100080007303000873030008730300087303000878
:100090007303000873030008730300087303000868
:1000A0007303000873030008730300087303000858
:1000B0007303000873030008E95200087303000883
:1000C0007303000873030008730300087303000838
:1000D00073030008855800087303000873030008C1
:1000E0007303000873030008730300087303000818
:1000F0007303000873030008730300087303000808
:100100007303000873030008F55200087303000826
:100110007303000873030008015300087303000809
:1001200073030008730300087303000873030008D7
:1001300073030008730300087303000873030008C7
:1001400073030008730300087303000873030008B7
:1001500073030008730300087303000873030008A7
:100160007303000873030008730300087303000897
:100170007303000873030008730300080000000005
:10018000730300087303000800F002F800F075F82C
:100190000AA090E8000C82448344AAF10107DA45E2
:1001A00001D100F06AF8AFF2090EBAE80F0013F0BF
:1001B000010F18BFFB1A43F001031847ACD200002F
:1001C000CCD200000A444FF0000C10F8013B13F0B1
:1001D000070408BF10F8014B1D1108BF10F8015BA0
:1001E000641E05D010F8016B641E01F8016BF9D193
:1001F00013F0080F1EBF10F8014BAD1C0C1B09D1EA
:100200006D1E58BF01F801CBFAD505E014F8016B5B
:1002100001F8016B6D1EF9D59142D6D370470000ED
:100220000023002400250026103A28BF78C1FBD8FF
:10023000520728BF30C148BF0B60704766290CF0D9
:100240007B85642900F08C81752900F089817829EB
:1002500000F0C281732900F0FA86002070471FB5B4
:100260000CF065FD00F0F8FE0400002000210CF009
:10027000D1FCE0601FBD10B510BD00F0F1FF1146CC
:10028000FFF7EDFF07F076FD01F00FF803B4FFF77D
:10029000F2FF03BC01F012F82C4B19680868B0E8B3
:1002A000F04F80F30988BFF36F8F4FF0000080F3A9
:1002B000118870470000000008480068006880F35B
:1002C00008884FF0000080F3148862B661B6BFF36F
:1002D0004F8FBFF36F8F00DF00BF00BF08ED00E05E
:1002E000DFF80C00016841F470010160704700BF45
:1002F00088ED00E0EFF30980BFF36F8F134B1A68AE
:100300001EF0100F08BF20ED108A20E9F04F10609A
:1003100009B44FF0500080F31188BFF34F8FBFF343
:100320006F8F0BF0B5F94FF0000080F3118809BC16
:1003300019680868B0E8F04F1EF0100F08BFB0EC65
:10034000108A80F30988BFF36F8F70473000002058
:10035000EFF30580704700000948804709480047CF
:10036000FEE7FEE7FEE7FEE7FEE7FEE7FEE7FEE765
:10037000FEE7FEE704480549054A064B70470000C2
:10038000D95200088901000840B9002040BF002070
:1003900040BB002040BB002053EA020C00F0698003
:1003A0002DE9F04B4FF00006002B1FBFB3FA83F589
:1003B00003FA05F424FA05F65E4012BF1643B2FABA
:1003C00082F502FA05F4C5F120051EBF22FA05FCEC
:1003D00044EA0C04203556EA044C4FEA144418BF92
:1003E000641C4FF000084FF00009904271EB030CC1
:1003F00039D3002919BFB1FA81F701FA07F6B0FA2B
:1004000080F700FA07F6C7F120071EBF20FA07FCA5
:1004100046EA0C062037B6FBF4FCA7EB0507103FB5
:1004200007F01F0BCBF120060CFA0BFB2CFA06F69B
:1004300044BFB3460026202FA4BF5E464FF0000BFA
:100440005BEA060C08BF4FF0010B19EB0B09ABFB85
:10045000027C48EB0608C01B06FB02CC0BFB03CC5E
:1004600071EB0C01C1E70B46024641464846BDE828
:10047000F08B13B54FF000004FF00001AFF3008098
:10048000BDE81C40704700000FB47CB50C0009AA01
:10049000009001D02044401E084B7B4469460190E7
:1004A000089800F0A2FD05461CB10020694600F046
:1004B000AFFD28467CBC5DF814FB00007D0B0000FE
:1004C00070B5044685690068C10601D5302600E094
:1004D0002026C00707D070BDD4E9012130469047DF
:1004E000206A401C20626D1EF6D570BD70B50446B2
:1004F00085690078C00707D170BDD4E901212020AB
:100500009047206A401C20626D1EF6D570BD70B504
:100510000C460546012A05D02878800600D5EA69F0
:10052000002302E0012305E05B1C934202D2E05C61
:100530000028F9D1A869E618C01AA861286A1844E9
:1005400028622846FFF7BCFF04E0D5E9012114F832
:10055000010B9047B442F8D32846FFF7C7FF70BDA0
:100560002DE9F0410646002410687529314616A58C
:1005700010D0AFF30080002802DA404213A507E054
:1005800031688A0701D512A502E0490704D511A5F3
:10059000012401E0AFF3008000210A2206F12407C4
:1005A00009E0B0FBF2FCB0FBF2F302FB1C003030C0
:1005B00078541846491C0028F3D123462A46304671
:1005C000BDE8F04100F0A4BA000000002D000000DA
:1005D0002B0000002000000070B504460D462146A7
:1005E0001068AFF300802188090502D50F4A7A44CC
:1005F00002E00E4A7A440E32002104F1240305E0A1
:1006000000F00F060009965D5E54491C0028F7D1E2
:1006100020780023000704D5702D02D009B10223F1
:1006200011322046BDE8704000F072BAC2CB000023
:100630002DE9F05F894604464FF0000ADFF874B1F7
:10064000FB44C0F820A02046E1688847002874D009
:10065000252806D0D4E901219047206A401C206259
:10066000F1E700265F462046E168884720280546D6
:1006700007DB312D05D2781910F8200C08B106439C
:10068000F1E7B00701D526F00406C4F81CA0002746
:10069000C4F818A02A2D09D0284605F063FB38B30A
:1006A00004EB8708303DC8F8185019E059F8041BCE
:1006B000204604EB87029161E1688847012F0546D7
:1006C00018D1E069002820DA26F020061DE0D8F8CD
:1006D000180000EB800005EB40003038C8F8180027
:1006E0002046E1688847054605F03CFB0028EED12E
:1006F000012F0AD02E2D08D12046E16888477F1CA3
:100700000546022F46F02006C4DBA069002803DA64
:10071000404246F00106A061F00701D026F0100625
:100720006C2D0BD0682D09D04C2D39D06A2D35D0C9
:10073000742D35D07A2D33D016E038E0E1682F469D
:1007400020468847B842054609D16C2F26D04FF481
:100750008060E168064320468847054604E06C2F28
:100760001AD04FF4807006430DB3A5F1410019284B
:1007700002D8203546F400664A46294620462660BF
:100780004E46FFF75BFD80B101280BD0F61D26F029
:10079000070000F1080956E74020E4E78020D8E789
:1007A0000020D6E706F104094DE7284652E7206A03
:1007B000BDE8F09F98CB000010B5431C02E010F894
:1007C000011B71B18107FAD14FF0013202C88C1AB6
:1007D0008C4314EAC211F9D0C01A0A0603D0C01E15
:1007E00010BDC01A10BD0A0401D0801E10BD090240
:1007F000FCD0401E10BD40EA010370B59B072ED10E
:100800004FF00136042A2AD308C810C99D1B9D4306
:10081000121F15EAC61517D0D8B2E1B2401A50EA35
:10082000056110D198B2A1B2401A50EA05410AD12F
:1008300023F07F4024F07F41401A50EA052102D185
:10084000180EA0EB146070BDA342DBD018BA21BA19
:10085000884201D9012070BD4FF0FF3070BD0AB948
:10086000002070BD10F8013B11F8014B63B1A342A9
:100870000AD1521E08D010F8013B11F8014B1BB1F0
:10088000A34201D1521EEDD1181B70BD032A40F2C4
:10089000308010F0030C00F0158011F8013BBCF122
:1008A000020F624498BF11F801CB00F8013B38BF3A
:1008B00011F8013BA2F1040298BF00F801CB38BF48
:1008C00000F8013B11F0030300F02580083AC0F066
:1008D000088051F8043B083A51F804CBA0E808100E
:1008E000F5E7121D5CBF51F8043B40F8043BAFF341
:1008F0000080D20724BF11F8013B11F801CB48BF9B
:1009000011F8012B24BF00F8013B00F801CB48BFD0
:1009100000F8012B704710B5203AC0F00B80B1E809
:100920001850203AA0E81850B1E81850A0E8185024
:10093000BFF4F5AF5FEA027C24BFB1E81850A0E82D
:10094000185044BF18C918C0BDE810405FEA827C47
:1009500024BF51F8043B40F8043B08BF7047D2075E
:1009600028BF31F8023B48BF11F8012B28BF20F8FF
:10097000023B48BF00F8012B704702F0FF0343EA37
:10098000032242EA024200F002B84FF000020429BA
:10099000C0F0128010F0030C00F01B80CCF1040CAE
:1009A000BCF1020F18BF00F8012BA8BF20F8022BE2
:1009B000A1EB0C0100F00DB85FEAC17C24BF00F888
:1009C000012B00F8012B48BF00F8012B70474FF0B6
:1009D000000200B5134694469646203922BFA0E88F
:1009E0000C50A0E80C50B1F12001BFF4F7AF09079B
:1009F00028BFA0E80C5048BF0CC05DF804EB89008C
:100A000028BF40F8042B08BF704748BF20F8022BCE
:100A100011F0804F18BF00F8012B704710B5044645
:100A200010F0030F08BF11F0030F40F015804FF0D6
:100A3000013E121FC0F20E8051F8043BA3EB0E0CD6
:100A40002CEA030C1CEACE1C08BF40F8043BF0D093
:100A5000A1F1040102F10402521E08DB11F8013B6E
:100A6000002B00F8013BF7D11146FFF78EFF20461F
:100A700010BD00004FF0013C50F8042B51F8043B2E
:100A80009A4221D1A2EB0C03934313EACC1317D162
:100A900050F8042B51F8043B9A4215D1A2EB0C03F9
:100AA000934313EACC130BD150F8042B51F8043BB9
:100AB0009A4209D1A2EB0C03934313EACC13DBD087
:100AC0004FF00000704700BFD01A01BAB1FA81F1AF
:100AD00001F0180122FA01F0CB40C1F12001DBB294
:100AE000C0B2C01A2CFA01F3D11A914311EAC31112
:100AF000E6D1704770477047704710B500F0B0FA04
:100B0000006810BD10B5044600F0AAFA046010BDDC
:100B10002DE9F0470D4699469246044600F1240817
:100B20000168880604D5E06921F01001216000E029
:100B30000120A84201DD471B00E00027A1697A19C6
:100B400002EB0900081AA0612078C00602D42046F2
:100B5000FFF7B6FC002608E0D4E901211AF80600E8
:100B60009047206A401C761C20624E45F4DB2078BA
:100B7000C0060AD52046FFF7A3FC06E0D4E9012110
:100B800030209047206A401C2062381EA7F10107E0
:100B9000F4DC07E0D4E9012118F805009047206A49
:100BA000401C2062281EA5F10105F3DC2046FFF75A
:100BB0009DFC2078000602D50220BDE8F0870120C8
:100BC000FBE770472DE9FF4F0C461E464FF0FF37FD
:100BD0008BB0D2E90001DDF860800A908A46C1F34B
:100BE0000A5505B93D46002108464FF00000BAF10C
:100BF000000F00F4400005DA00EB80004FF44001E4
:100C000001EA50004FEA9059B9F1010F00DDB946F1
:100C10000A9850EA4A000ED044F61050A5F2FF356B
:100C200045432F14B8F1000F1ED07542291E1EDD5A
:100C3000C9F100021CE0B8F1010F4FF0000001D033
:100C4000302103E0F24305E02154401CB042FBDBBD
:100C500030460022002121540B99C1F80880C1E9D7
:100C600000200FB0BDE8F08FBD1B6D1CDEE74A46CB
:100C700000DA694206A800F07DFA06AB93E80700A7
:100C800003AB83E8070050460A9900F01EFB8DE88D
:100C90000700A0F500501F3800900398002D0ADDD2
:100CA00042F21F014A460844002303A90390684604
:100CB00000F087FD09E0A0F500504A461F380023E8
:100CC00003A90390684600F091FD8DE80700000439
:100CD000000C03D04FF0FF30410800E01046B8F19F
:100CE000000F03D00022009215461EE0751E05D4A9
:100CF00000F0BAF9303262556D1EF9D5B3460122C3
:100D0000084302D000227F1C04E02078302801D163
:100D100000227F1E002A099784D01DE0112D07DADA
:100D200000F0A2F9303262556D1C50EA0102F5D193
:100D3000084302D00098C8B10EE00021681E05E00B
:100D4000235C625C63542254401E491C8142F7DBE1
:100D5000AB46A81B401E0990002004F80B000B981E
:100D6000099AC0F80880C0E9002B7AE711264FF0F5
:100D7000000857E72DE9F04F88460446D21D22F0BF
:100D8000070191B0D1E90001CDE90A0104F081FD2C
:100D900002460B98C00F01D02D2007E02068810784
:100DA00001D52B2002E0202101EAC000032A09908E
:100DB00001D0072A05DB03464146204600F09AF998
:100DC0000BE12078800601D5E06900E00620B8F14B
:100DD000650F814606D0B8F1660F18D0B8F1670FDD
:100DE00070D131E00020B9F1110F009001DB112327
:100DF00001E009F101030AAA01A90CA8FFF7E2FE2C
:100E0000DDE90C70002609F10105834647E0012069
:100E10004B4600904FF000470AAA01A90CA8FFF723
:100E2000D1FEDDE90DB00C995D46002610B909F13F
:100E300001000D18B9EB050003D4C0F1FF3609F12C
:100E40000105A5EB09002BE0B9F1010F01DA4FF024
:100E500001090020B9F1110F0090484601DD11236E
:100E600000E003460AAA01A90CA8FFF7ABFEDDE9E2
:100E70000C704D4600268346207800070AD4AB4507
:100E800000DA5D4601A8012D04DD411911F8011CAD
:100E9000302907D04F4502DA17F1040F04DA012098
:100EA00082460FE06D1EEEE7002F02DCED1B3E4494
:100EB00003E0781CA84200DD7D1CB81B00F1010A8C
:100EC0004FF000472078000703D4AA4501DB4FF01C
:100ED000FF3A0021B7F1004F0DF143088DF84310A0
:100EE00024D002202B23002F01DA7F422D230A2158
:100EF000021EA0F1010000DC5FB197FBF1FC97FB43
:100F0000F1F201FB1C7C17460CF1300C08F801CD06
:100F1000EEE7A8F1010003702188090501D54521FC
:100F200000E06521A0F1010800F8011C09980FA953
:100F3000A1EB0807FF1D00B10120411901EBEA7088
:100F4000A1693844081A401EA0612078C00602D466
:100F50002046FFF7B5FA099828B1D4E90121904756
:100F6000206A401C20622078C00622D52046FFF768
:100F7000A7FA1EE0002E04DBB34502DD01A8805D68
:100F800000E03020D4E901219047206A401C206213
:100F9000761CAAF101005FEA000A0AD100F05CF8B1
:100FA000C0680168405CD4E901219047206A401C78
:100FB0002062281EA5F10105DCDC07E0D4E901214F
:100FC00018F8010B9047206A401C2062381EA7F1D8
:100FD0000107F3DC2046FFF789FA032011B041E650
:100FE00001694A1C02610878704700B58FB0CDE9ED
:100FF00001310021059105497944CDE903101146DD
:101000006846FFF715FB0FB000BD0000E5FFFFFFCE
:101010000A6802F8010B0A607047D1E900239A427E
:1010200002D2531C0B601070704710B5436913B1A6
:10103000AFF3008001E0FFF76AFA012010BD1278DB
:1010400000F124010A7000224A700122EDE71168C4
:101050004FF0FF32E9E7000000487047FCB800207D
:1010600000487047DCB8002030B5B0F10A024FEA02
:10107000900E71F100034EEA817EB0EB0E0061EB41
:1010800091014FEA101E4EEA017E10EB0E0041EB7B
:1010900011114FEA102E4EEA016E10EB0E0041EBDB
:1010A00011214FEA104E4EEA014E10EB0E0041EBBB
:1010B0001141401841F100014FEAD00040EA41706F
:1010C0004FEAD10110EB80054FEA810444EA9074A5
:1010D00044EB01046D1944EB0404521BA3414FF08F
:1010E000000348BF0A3200D530BD401C41F1000169
:1010F00030BD00002DE9F0411F460446032601687B
:10110000072A01F4006004DB08B116A505E016A566
:1011100003E008B115A500E015A521F0100020603E
:10112000A069C01EA0610FB1401EA0612046FFF75C
:10113000C7F94FB1D4E9012138469047206A401CD5
:101140002062C01C206206E0206AFAE7D4E901218F
:1011500015F8010B9047761EF8D22046FFF7C6F926
:10116000BDE8F0814E414E006E616E00494E460072
:10117000696E66002DE9F047814616468AB035480B
:1011800078440DC88DE80D0032487844801C03ACCB
:101190000DC884E80D0041F69B300844372190FBD0
:1011A000F1F290FBF1F5A5F1800501FB12041B3C67
:1011B00002D56442012000E00020DFF898A08046BC
:1011C0000027FA44AAF1BE0A0EE0E0070AD0324630
:1011D000684607EB470101230AEB810100F006FB9B
:1011E0008DE8070064107F1C002CEED1194F7F445E
:1011F000AE3F19E0E80715D007EB04100DF1180A0F
:1012000090E80E008AE80E00C068F04201D19819FB
:1012100008903246012306A903A800F0E7FA03ABC1
:1012200083E807006D10641C002DE3D14FF001032B
:1012300032466946B8F1000F03A802D000F0C1FAA7
:1012400001E000F0D3FAC9E90001C9F808200AB0AA
:10125000BDE8F08708C1000000487047DCB80020F6
:101260007546FFF7F9FFAE4605006946534620F084
:101270000700854618B020B5FFF77CF8BDE8204090
:101280004FF000064FF000074FF000084FF0000B42
:1012900021F00701AC46ACE8C009ACE8C009ACE8F5
:1012A000C009ACE8C0098D46704710B50446AFF3DD
:1012B00000802046BDE81040FEF7E8BF0149182035
:1012C000ABBEFEE72600020070475FEA400C08BF95
:1012D00091F0000F4FEA8C234FEAC12243EA5151AB
:1012E0004FEA1C5018BF00F5F0404FEA300018BF1D
:1012F00041F000415FEA6C5C00F02980BCF1FF3FE7
:1013000008BF40F080407047130C06BF12044FF036
:10131000100C4FF0000C130E04BF12020CF1080C5D
:10132000130F04BF12010CF1040C930F04BF9200C1
:101330000CF1020CD30F04BF52000CF1010C11464A
:101340004FF00002A0F11F00A0EB0C00704711F05D
:10135000004F08BF704731F000413FF4D5AF0B0C90
:1013600006BF09044FF0100C4FF0000C0B0E04BF29
:1013700009020CF1080C0B0F04BF09010CF1040C5D
:101380008B0F04BF89000CF1020CCB0F04BF490086
:101390000CF1010CCCF12003A0EB0C0022FA03F3BA
:1013A00002FA0CF241EA030100F10100704720F05B
:1013B0007F4C80EA030023F07F47ACEB070303F583
:1013C0007C5300F0004003F1FF032DE980494FEA10
:1013D000154B09B44FEA144325EA0B4E24EA03489F
:1013E0000FF2042606EB132749083E785FEA320223
:1013F00003FB0667C7F5000707FB06F64FEA5437FD
:101400004FEAD64606F1020607FB066CCCF1005CFB
:101410004FEA1C472CEA074C07FB06F40CFB06F5C9
:1014200004EB15464FEA961634BF00204FF00040FB
:101430004FEAD13706FB07FC4FEA1C4C0CFB0BF7BD
:10144000D21B03FB0CF761EB07010CFB0EF7B0EBB3
:10145000074072EB17420CFB08F734BFA2EB0742C0
:10146000B2EB074261EB17414FEA0C444FEA910798
:1014700006FB07FC4FEA1C4C0CFB0BF7B0EBC7401C
:1014800072EB573203FB0CF734BFA2EBC742B2EB4F
:10149000C74261EB57310CFB0EF7B0EBC70072EBA4
:1014A00057720CFB08F734BFA2EBC702B2EBC702BE
:1014B00061EB5771039F4FEA816141EA921104EB9E
:1014C000CC044FEAD1374FEA826206FB07FC42EABE
:1014D00090124FEA80604FEA1C4C0CFB0BF7D21BBA
:1014E00003FB0CF761EB07010CFB0EF7B0EB0740B9
:1014F00072EB17420CFB08F734BFA2EB0742B2EBCA
:10150000074261EB17414FEA8C554FEA910704EB14
:101510009C2406FB07FC4FEA1C4C0CFB0BF7B0EBC2
:10152000C74072EB573203FB0CF734BFA2EBC74244
:10153000B2EBC74261EB57310CFB0EF7B0EBC700C3
:1015400072EB57720CFB08F734BFA2EBC702B2EB89
:10155000C70261EB577115EB4C254FEA816141EAF7
:1015600092114FEA82624FEAD13742EA901206FBAB
:1015700007FC44F100044FEA80604FEA1C4C0CFB6E
:101580000BF7D21B03FB0CF761EB07010CFB0EF70B
:10159000B0EB074072EB17420CFB08F734BFA2EB2D
:1015A0000742B2EB074261EB174115EB1C154FEAFE
:1015B000813141EA92414FEA823242EA90424FEA57
:1015C00080304FEA0C7644F1000448EA03434EEAC7
:1015D0000B484FF0000EB2EB080C71EB030724BF71
:1015E000624639464EEB0E0E4FF0000B001852418A
:1015F00049414BEB0B0BB2EB080C71EB03077BF192
:10160000000B24BF624639464EEB0E0E4FF0000B26
:101610000018524149414BEB0B0BB2EB080C71EB3C
:1016200003077BF1000B24BF624639464EEB0E0EDA
:1016300051EA020718BF46F0010616EB0E7655F187
:10164000000254F1000103D5BDE88901BDE800881E
:10165000BDE88901BDE80048B619524141EB0101DE
:10166000A3F10103704780807F7E7D7C7B7A79784F
:10167000777676757473727171706F6E6E6D6C6C57
:101680006B6A6A69686867666665646463636261F9
:101690006160605F5F5E5E5D5D5C5C5B5B5A5A597A
:1016A00059585857575656555555545453535252E6
:1016B0005251515050504F4F4F4E4E4D4D4D4C4C3E
:1016C0004C4B4B4B4A4A4A49494948484847474787
:1016D00047464646454545444444444343434342C4
:1016E000424242414141002B9C4630D477002BD0EE
:1016F0001CB54FEA370703B44FF010004FF010014C
:10170000BAF1000F06D0BCF1000FDCBF40F00800BA
:1017100040F008014FF000000FBCBDE810400BF195
:10172000010BBBF1010F08BF5FEA170722BF12F1DF
:10173000010211F101014FF0004143F1000300F0FB
:10174000004043EA00007047F9D35708D0E746EA63
:10175000064613F1400F4FEA16461FDD13F1200F26
:10176000DFBF16430A46002120335B42BED0C3F1DF
:10177000200746EA064602FA07F74FEA164646EA07
:101780000706C3F1200722FA03F201FA07F721FA4C
:1017900003F14FF0000342EA0702A7E746EA020618
:1017A00046EA06464FEA164646EA0106BCBF46EA46
:1017B0000646360C4FF000034FF000024FF00001D8
:1017C00094E72DE9804C9A46934670B491E838002E
:1017D00007C831EA400C48BF34EA430C03D5FFF791
:1017E000E6FDFFF780FFF0BCBDE8008C2DE9804CE2
:1017F0009A46934670B491E8380007C810F0804FBD
:1018000008BF13F0804F03D100F005F8FFF76BFF1E
:10181000F0BCBDE8008C20F07F4780EA030023F095
:101820007F4C07EB0C03A3F57C5300F00040A3F1C1
:10183000FE0392F0000F00F0B38095F0000F00F06F
:1018400077802DE901494FEA11404FEA144621EA19
:10185000004800FB06FC24EA064708FB06F607FBE7
:1018600008F800FB07F718EB06484CEB164C4FEA5C
:10187000124B18EB07484FEA15464CEB174022EA8B
:101880000B4E0BFB06FC25EA06470EFB06F607FB94
:101890000EFE0BFB07F71EEB064E4CEB164C4FF003
:1018A00000061EEB074E4CEB174B18EB0B0840F1F4
:1018B000000018EB0E0B58EB000840F100008F1AE7
:1018C0004FF000013CBFC943661B14BFB5EB040CCD
:1018D00000213CBFC943F61B4FEA17444EEA8E0E67
:1018E00027EA04454FEA1C4704FB07622CEA074C31
:1018F00005FB07F70CFB05F604FB0CFC16EB074693
:1019000042EB174216EB0C4642EB1C421BEB060661
:1019100058EB0202414146EA9E0601D5BDE8018925
:10192000B619524141EB0101A3F10103BDE8018960
:101930004FEA14454FEA114724EA054621EA074CCD
:1019400005FB07F406FB07F70CFB06F105FB0CFC97
:1019500011EB074144EB17444FEA124711EB0C41DE
:1019600044EB1C4422EA074C05FB07F206FB07F791
:101970000CFB06F605FB0CFC16EB074642EB174288
:1019800016EB0C4642EB1C456A1854F1000148BFA7
:101990007047B619524141EB0101A3F101037047B1
:1019A00095F0000F37D04FEA11424FEA144721EA71
:1019B000024624EA074C02FB07F106FB07F70CFB83
:1019C00006F402FB0CFC14EB074441EB17414FEA11
:1019D000154714EB0C4441EB1C4125EA074C02FB74
:1019E00007F506FB07F70CFB06F602FB0CFC16EBF3
:1019F000074645EB174516EB0C4645EB1C42121902
:101A000051F1000148BF7047B619524141EB010145
:101A1000A3F1010370474FEA14454FEA114724EA46
:101A2000054621EA074C05FB07F106FB07F70CFB0F
:101A300006F24FF0000605FB0CFC12EB074241EBEF
:101A4000174112EB0C4251EB1C4148BF70479218F2
:101A500041EB0101A3F1010370470000464910B5B5
:101A60004A6822F440324A604A6843681A434A602E
:101A700001684A6822F480724A6001684A68036912
:101A800042EA03224A6001684A6822F040724A60D2
:101A900001684A6883681A434A6001688A6822F4C8
:101AA00000628A6001688A68C3681A438A60816A32
:101AB0006FF07062D14201688A6822F070628A60B9
:101AC00001688A680CD0836A1A438A6001688A6850
:101AD00022F040528A6001688A68C36A1A4301E0B2
:101AE00022F040528A6001688A6822F002028A600D
:101AF00001688A68037E42EA43028A6090F82010F7
:101B0000002901684A680FD042F400624A60016807
:101B10004A6822F460424A6001684A68174C436A86
:101B200004EB43331A4301E022F400624A60016887
:101B3000CA6A22F47002CA620168CA6A838B104CB6
:101B400004EB03531A43CA6201688A6822F40072E4
:101B50008A6001688A6890F8303042EA43228A60DD
:101B600001688A6822F480628A6001688A68406934
:101B700042EA8020886010BD0023014000E0FFFFA2
:101B80000000F0FFFEE7704772B6FEE778B500246C
:101B9000009490F83C20012A19D0012280F83C20C2
:101BA0000A6807230568092A13D9EE680A3A02EB86
:101BB000420293409E43EE600B788A680A3B03EB37
:101BC00043039A400368DD682A43DA6010E002208C
:101BD00078BD2E6902EB420293409E432E610B7842
:101BE0008A6803EB43039A4003681D692A431A611C
:101BF0004A681F23072A13D205686E6B521E02EB38
:101C0000820293409E436E630B790A885B1E92B2F8
:101C100003EB83039A4003685D6B2A435A6327E012
:101C200005680D2A12D22E6BD21F02EB820293405E
:101C30009E432E630B790A88DB1F92B203EB83036A
:101C40009A4003681D6B2A431A6311E0EE6A0D3A4D
:101C500002EB820293409E43EE620B790A880D3BB1
:101C600092B203EB83039A400368DD6A2A43DA6287
:101C7000164B0568144A9D4206D10D68122D03D1FA
:101C8000556845F48005556005689D4218D10B687C
:101C9000102B01D0112B13D1536843F40003536070
:101CA000096810290CD10A490A4A0968B1FBF2F106
:101CB00001EB8101490000E0491E00910029FBD1A0
:101CC00080F83C40002078BD002301400020014006
:101CD0002C00002040420F000068C06C704770B5B7
:101CE00004004FF0000503D0206C002610B107E07F
:101CF000012070BD204600F01DF8666484F83C6049
:101D0000206CC00610D4206C20F4885040F00200F3
:101D100020642046FFF7A2FE6664206C20F00200DB
:101D200040F00100206400E0012584F83C60284672
:101D300070BD000008B500680649884208D1064811
:101D4000016841F480710160006800F480700090C7
:101D500008BD000000200140443802402DE9F04158
:101D6000044600680D4681684FF0000749050BD511
:101D70008068C00508D5206C40F02000206484F8FD
:101D80003C700120BDE8F08100F04AFA064613E0FD
:101D9000681C11D025B100F043FA801BA8420BD972
:101DA00020680068800707D4206C40F0040020649D
:101DB00084F83C700320E5E7206800688007E7D5D9
:101DC00021686FF012000860206C40F400702064FD
:101DD0002068816811F0405F13D1217E89B9C16A02
:101DE00011F4700F02D0806840050AD4206C20F4F2
:101DF00080702064206CC00403D4206C40F001008B
:101E000020640020BEE7000018B50021009190F882
:101E10003C20012A07D0012280F83C200268936808
:101E2000DB0702D011E0022018BD936843F00103E4
:101E300093602E4A2E4B1268B2FBF3F202EB420281
:101E400000E0521E0092002AFBD102689368DB0773
:101E500042D0036C40F20164A34343F480730364F3
:101E600053685B0505D5036C23F4005343F480539A
:101E70000364036CDB0404D5436C23F00603436462
:101E800000E0416480F83C101A496FF022031360AF
:101E900049680068CA06184906D0884224D181687A
:101EA00011F0405F13D01FE08842F8D0134A9042EF
:101EB00003D1D1F80423D206F1D0114A904213D1B4
:101EC000D1F8041301F01F011029E8D30CE0816858
:101ED00041F08041816007E0016C41F01001016434
:101EE000416C41F001014164002018BD2C0000202C
:101EF00040420F000023014000200140002101402A
:101F00000022014090F83C1001290CD0012180F8FA
:101F10003C1001688A6822F001028A6001688968C1
:101F2000C90702D007E002207047016C21F48851F4
:101F300041F001010164002180F83C10084670471F
:101F40002DE9F0410446876D00F06AF9064694F8E1
:101F500035000025022806D08020606584F83450C2
:101F60000120BDE8F0812068016821F016010160C0
:101F70002068416921F080014161206C08B9A06CA2
:101F800020B12068016821F0080101602068016823
:101F900021F0010101600CE000F042F9801B0528EE
:101FA00007D920206065032084F8350084F8345078
:101FB000D7E720680068C007EED194F85C103F2096
:101FC0008840B860012084F8350084F8345000203F
:101FD000C7E790F83510022903D080214165012020
:101FE0007047052180F835100068016821F0010173
:101FF000016000207047000070B5044600F010F941
:102000000546601C02D004480078044400F008F93A
:10201000401BA042FAD370BD200000202DE9F84FEC
:10202000DFF8BCA10022012503264FF00F090AF1B9
:10203000040BAAF1040E00BF0B6805FA02F423405A
:10204000A34270D10F7907F00307012F01D0022FAF
:1020500016D187684FEA420806FA08FC27EA0C07FF
:10206000D1F80CC00CFA08FC4CEA070CC0F808C008
:102070004768A7430C79C4F3001494403C43446080
:102080000C79E443A4070AD0C4684FEA420C06FA6C
:102090000CF7BC438F6807FA0CF72743C7600C792D
:1020A00004F00304022C12D1D40800EB840CDCF8F9
:1020B00020405707FF0E09FA07F824EA0804D1F870
:1020C000108008FA07F848EA0408CCF82080046871
:1020D0004FEA420C06FA0CF7BC430F7907F00307EE
:1020E00007FA0CF7274307604C6814F4403F70D0A0
:1020F0003C4C276847F480472760246822F0030798
:1021000004F480440094384C07EB040CDCF80848D5
:1021100097074FEA177809FA08F7BC43334FB842DC
:1021200002D1002724E054E0314FB84201D1012709
:102130001EE0304FB84201D1022719E02E4FB842BD
:1021400001D1032714E02D4FB84201D104270FE03D
:102150002B4FB84201D105270AE02A4FB84201D1DE
:10216000062705E0284FB84201D1072700E00827DD
:1021700007FA08F72743CCF80878DAF80040574602
:10218000D1F804C09C435FEACC2C00D51C433C60D2
:10219000DBF800405F46D1F804C09C435FEA8C2C1A
:1021A00000D51C433C60DEF800407746D1F804C0FF
:1021B0009C435FEA8C3C00D51C433C60084F083FC1
:1021C0003C68D1F804C09C435FEACC3C00D51C437A
:1021D0003C60521C102AFFF42FAFBDE8F88F0000BE
:1021E000083C0140443802400030014000000240F9
:1021F0000004024000080240000C024000100240AF
:102200000014024000180240001C0240006908400F
:1022100000D0012070470AB1816170470904FBE7D3
:1022200001488068704700002000002070B504005D
:1022300025D094F83D00002520B984F83C50204674
:1022400000F0FCFA242084F83D002068016821F0A9
:10225000010101602068016841F4004101602068CB
:10226000016821F40041016000F03EFD4D4A6168C3
:10227000914201D84C4900E04C49884201D20120EA
:1022800070BD4B492368B0FBF1F15E6826F03F0654
:102290000E435E606368934206D94FF496735943C8
:1022A0004FF47A73B1FBF3F12368491C1E6A26F0E0
:1022B0003F06314319626168914210D84900401EBF
:1022C000B0FBF1F2521CC2F30B02042A01D204202B
:1022D00022E0B0FBF1F0401CC0F30B001CE0A26850
:1022E000F2B301EBC10303EB0116431EB3FBF6F39C
:1022F0005B1C43F480431B0549D092B301EBC10240
:1023000002EB0111401EB0FBF1F0401CC0F30B00CA
:1023100040F4804040F400402168CA694CF6FF73E5
:102320009A431043C861D4E907100143206802684A
:1023300022F0C00211430160D4E903010143206887
:10234000826848F2FF339A4311438160D4E9050162
:1023500008432168CA6822F0FF021043C86001E008
:102360000EE016E02068016841F00101016025647B
:10237000202084F83D00256384F83E50002070BD85
:1023800001EB4106431EB3FBF6F35B1CB3E70120F0
:10239000C2E701EB4101401EB0FBF1F0401CC0F36D
:1023A0000B00B7E7A086010080841E0000093D00F5
:1023B00040420F002DE9FF4F81B089460446FFF7E8
:1023C0002FFF054694F83D004FF0000820287DD1EE
:1023D0001923012250492046009502F0CFF9002828
:1023E00074D194F83C00012870D0012084F83C009E
:1023F00020680168C90703D1016841F0010101604B
:102400002068016821F400610160242084F83D0007
:10241000002626644148E0624FF0011B2027206817
:10242000016841F480710160009500225946204600
:10243000049B02F0A3F950B120680068C00502D5E2
:102440004FF400702064032005B0BDE8F08F2168D0
:1024500009F0FE000861FFF7E3FE216805464869C0
:102460004969C0F34000C1F380214FF0A00A0FE09A
:10247000FFF7D6FE411B0498814200D808B984F8C2
:102480003DA0216848694969C0F34000C1F380213B
:1024900094F83D20A02A02D008B90029E8D084F899
:1024A0003D7020684169C943890716D4016841F429
:1024B0000071016020684169806919230122164971
:1024C0002046009502F05AF9B8B900E021E084F8FE
:1024D0003D7084F83C600020B6E7016841F400716B
:1024E000016021686FF480604861192301220A4964
:1024F0002046009502F042F908B10120A4E70398B4
:1025000008F1010880458AD384F83D7084F83C6066
:10251000F3E7022098E70000020010000000FFFF30
:102520002DE9F84F1F4690468A460446DDF828906C
:10253000FFF776FE054694F83D00202871D1192357
:10254000012270492046009502F018F90028F5D1C3
:1025500094F83C00012864D0012084F83C002068F5
:102560000168C90703D1016841F0010101602068D9
:10257000016821F400610160222084F83D001020F0
:1025800084F83E0000262664C4F824806785608DA8
:1025900020855D48E0622B464A465146204601F0C0
:1025A000FDFF002876D1208D584F68B1012814D046
:1025B00002282068016816D041F48061016020681B
:1025C0004169806900908EE02068416981690091CD
:1025D000016841F40071016085E02068016821F420
:1025E00080610160F0E721F480610160206801688A
:1025F00041F40061E2E7032846D801280AD0022806
:1026000010D04B46002239462046009502F0B6F81D
:10261000C8BB25E02A464946204602F055F990BB42
:1026200054E06CE04B46002239462046009502F00B
:10263000A5F840BB2068016841F400710160206882
:102640000069616A0870606A401C6062218D491EE1
:102650002185618D491E618521680969017039E014
:102660002068016821F48061016020680069616A66
:102670000870606A401C6062208D401E2085608D5D
:10268000401E6085CEE705E02A464946204602F016
:102690001BF910B10120BDE8F88F20680069616A5C
:1026A0000870606A401C6062208D401E81B22185E6
:1026B000608D401E608520684269D243520712D463
:1026C000032903D1016821F4806101602068006959
:1026D000616A0870606A401C6062208D401E20851F
:1026E000608D401E6085208D002884D1202084F8D4
:1026F0003D0084F83E6084F83C600020CBE7022077
:10270000C9E70000020010000000FFFF0400010004
:102710002DE9F84F1F4690468A460446DDF828907A
:10272000FFF77EFD054694F83D0020287FD1192350
:10273000012240492046009502F020F8002876D179
:1027400094F83C00012872D0012084F83C002068F5
:102750000168C90703D1016841F0010101602068E7
:10276000016821F400610160212084F83D001020FF
:1027700084F83E0000262664C4F824806785608DB6
:1027800020852D48E0622B464A465146204601F0FE
:102790007BFF90B9206841698069009036E02A4645
:1027A0004946204602F0C8F850B1206C042804D1F4
:1027B0002068016841F4007101600120BDE8F88FD4
:1027C000606A216800780861606A401C6062618DFF
:1027D000491E6185218D491E89B221852268536970
:1027E000DB435B070BD451B100781061606A401C79
:1027F0006062608D401E6085208D401E20852A46C7
:102800004946204601F08EFF0028CED1208D0028B9
:10281000C5D154F83D0B016841F4007101602020DE
:1028200004F81E09E67766770020C7E7FFE7022075
:10283000C4E70000020010000000FFFF10B586B0E2
:10284000044614216846FEF7C2F8134920688842FE
:102850001FD112480021026842F020020260006885
:10286000122200F0200005900320CDE90210CDE9EE
:1028700000020420049069460948FFF7CFFB07488F
:102880001030016841F480010160006800F48000AC
:10289000059006B010BD00000058004030380240DE
:1028A0000014024002488168027811448160704738
:1028B000200000200B4810B5016841F40071016050
:1028C000016841F480610160016841F48071016038
:1028D000032000F09FF80F2000F006F800F050F8F9
:1028E000002010BD003C024030B505461F4887B0AF
:1028F0000024016841F010010160006806A900F0A1
:102900001000009001A800F0CFF90498A8B100F0E1
:10291000EBF940001649174AB0FBF1F11648491E81
:10292000026040F2E732C0E90324C0E90114846187
:1029300001F0CEF8040003D015E000F0D5F9E9E786
:102940000D4801F05BF904000DD1362000F034F899
:10295000102D07D200222946362000F03BF8074808
:10296000056000E0012407B0204630BD4038024039
:1029700040420F00001000402804002024000020E6
:102980000C4882B0016841F480410160006800F4A5
:10299000804000900748001F016841F080510160AD
:1029A0000068002200F0805000900F21901E02B0BD
:1029B00000F010B844380240002809DB00F01F0284
:1029C000012191404009800000F1E020C0F8001191
:1029D00070470000F0B40E4B1B680C46C3F3022393
:1029E000C3F10705042D00D90425191D072901D2BB
:1029F000002300E0DB1E012606FA05F1491E2140F6
:102A000099409E40761E16403143F0BC02F06CBFE8
:102A10000CED00E0064900F0070208684FF6FF03DE
:102A2000184040EA0220034A104308607047000043
:102A30000CED00E00000FA052DE9F84305460068BA
:102A40004FF00109C1074FF0000601D1400727D51B
:102A5000DFF80C81C8F86860FFF7E2FB0746414CDD
:102A600005E000BFFFF7DCFBC01B022857D8206839
:102A70000001F7D468688101287A41EA0070394979
:102A800084310860C8F86890FFF7CAFB074604E085
:102A9000FFF7C6FBC01B022841D820680001F7D50C
:102AA0002878800752D52F484030016841F0805186
:102AB000016000682C4C00F080500090206840F4C9
:102AC00080702060FFF7ACFB074604E0FFF7A8FB2F
:102AD000C01B022823D82068C005F7D5214C7034CC
:102AE000206810F4407020D0A98901F4407181421F
:102AF0001BD020681D4920F44070C1F800900E6082
:102B000020602068C00710D0FFF78AFB064641F21C
:102B1000883707E0FFF784FB801BB84202D9032007
:102B2000BDE8F88320688007F4D5E9680D48C1F353
:102B300001220830032A0BD0016821F4F81101604A
:102B40002068A989C1F30B01084320600020E7E752
:102B50000268074B22F4F81219400A430260EFE7BB
:102B6000000047420038024000700040400E4742DB
:102B7000FFFCFF0F2DE9F0470E46050065D0DFF89A
:102B80001481D8F80000F7B200F00700B04207D275
:102B900088F80070D8F8000000F00700B04254D167
:102BA00028683D4C810712D5400703D5206840F4C2
:102BB000E05020602878000703D5206840F460408A
:102BC00020602068A96820F0F00008432060287881
:102BD000C0072DD0304968680839012812D0022872
:102BE00013D0032811D00968890700292DDA21683C
:102BF00021F0030101432160FFF712FB814641F2FE
:102C0000883A0EE009688903EFE709688901ECE773
:102C1000FFF706FBA0EB0901514502D90320BDE8EF
:102C2000F0872068696800F00C00B0EB810FEFD1ED
:102C3000D8F80010404601F00701B14207D90770EB
:102C4000006800F00700B04201D00120E7E72878D3
:102C5000400705D52068E96820F4E050084320606B
:102C60002878000706D52068296920F4604040EAEA
:102C7000C100206000F058F82168084AC1F3031130
:102C8000515CC8400649086006480068FFF72CFE02
:102C90000020C4E7003C02400838024034CE00085F
:102CA0002C000020240000200F2202600C4A136830
:102CB00003F003034360136803F0F00383601368B9
:102CC00003F4E053C36012684FF4E05303EAD20206
:102CD00002610448006800F00700086070470000C7
:102CE00008380240003C0240044805490068096871
:102CF000044AC1F38221515CC84070472C00002077
:102D00000838024044CE00080448054900680968B4
:102D1000044AC1F34231515CC84070472C00002086
:102D20000838024044CE0008154810B5006810F07D
:102D30000C02144813D04110042A0FD0082A0ED1D7
:102D40000F4C241F2268236802F03F025B0207D564
:102D50002068C0F38810A0FB010106E0084610BD02
:102D60002168C1F38811A1FB00010023FDF714FBCA
:102D70002168C1F30141491C4900B0FBF1F010BDCD
:102D8000083802400024F4002DE9F84F04006ED00A
:102D90002078DFF84C93C007A9F104054AD009F167
:102DA00004000168C1F38101012908D00068C0F363
:102DB000810002280AD1D9F80000400206D528680F
:102DC000800337D560680028E1D033E06068B0F553
:102DD000803F10D0B0F5A02F286810D020F48030AC
:102DE0002860286820F4802028606068A8B1FFF778
:102DF00017FA06460DE0286840F48030F4E740F406
:102E000080202860F7E700BFFFF70AFA801B6428DC
:102E100073D828688003F7D50CE0FFF701FA06465F
:102E200005E000BFFFF7FCF9801B6428F0D8286894
:102E30008003F7D42078DFF8AC8280074FF0000AD7
:102E40003ED5A748001D016811F00C0F08D000689E
:102E5000C0F3810002280BD1D9F80000400207D44A
:102E60002868800716D5E068012800D112E033E118
:102E7000E068B8B10120C8F80000FFF7D1F90646B4
:102E800005E000BFFFF7CCF9801B0228C0D82868F6
:102E90008007F7D52868216920F0F80040EAC100D2
:102EA00028600DE0C8F800A0FFF7BAF9064604E074
:102EB000FFF7B6F9801B02281FD828688007F7D4CF
:102EC0002078000722D5864F87486169703771B135
:102ED00001210160FFF7A4F9064604E0FFF7A0F91D
:102EE000801B022809D838688007F7D50EE0C0F8A3
:102EF00000A0FFF795F9064605E082E0FFF790F99C
:102F0000801B02287DD838688007F7D420784007D6
:102F100068D5DFF8CCB100270BF13C0BDBF80000E3
:102F2000C0000BD4DBF8001041F08051CBF800104A
:102F3000DBF80000012700F0805000906B4E3068F5
:102F4000C00510D4306840F480703060FFF768F935
:102F5000009005E0FFF764F90099401A022850D864
:102F60003068C005F6D55E4EA0686C3601280FD0DB
:102F70000528306810D020F001003060306820F063
:102F800004003060A068B8B1FFF74AF900900FE084
:102F9000306840F00100F4E740F004003060F7E7EB
:102FA000FFF73EF90099411A41F28830814266D814
:102FB00030688007F4D50EE0FFF732F9009007E0A3
:102FC000FFF72EF90099411A41F28830814256D814
:102FD00030688007F4D42FB1DBF8001021F0805165
:102FE000CBF80010A069C8B33D49091D0968C1F3B9
:102FF000810102294AD00228504607D0C8F8600053
:1030000000E03CE0FFF70CF904463BE04746C8F817
:103010006000FFF705F9064605E000BFFFF700F97D
:10302000801B02282BD828688001F7D4D4E9070137
:103030000843A16A2E4A490802EB0141626A41EA4B
:103040008211084394F82C1040EA0161C9F800107D
:1030500001203866FFF7E4F8044606E03EE000BFD2
:10306000FFF7DEF8001B022809D828688001F7D591
:1030700034E000BFFFF7D4F8001B022802D9032078
:10308000BDE8F88F28688001F4D427E00128F7D044
:10309000D9F80000E26900F4800191421CD1226A53
:1030A00000F03F01914217D147F6C071626A0140BA
:1030B000B1EB821F10D1A26A4FF0FF3300F4403110
:1030C00003EB5202B1EB024F06D194F82C1000F042
:1030D0007060B0EB016F01D00120D1E70020CFE795
:1030E0000438024000004742800E47420070004012
:1030F0000000FFFF0068503050F821007047006862
:10310000503040F82120704710B500680B464168E8
:103110000D480140080CD870C1F304245C7001F024
:103120003F049C70C1F34231197052B901F060FE46
:10313000D870587801F05CFE5870987801F058FE0D
:103140009870002010BD00003FFFFF0010B50B4637
:103150000168896A596001680969C1F30E019960C3
:10316000006801680D480140C1F305401870C1F3C3
:1031700006245C7001F07F049C70890DD97052B9EF
:1031800001F036FE1870587801F032FE58709878C9
:1031900001F02EFE9870002010BD00007F7F7F00A0
:1031A00010B5040002D0607F10B106E0012010BD10
:1031B00000202077204600F041F802206077206848
:1031C000C168C943C90632D5CA214162216853206A
:1031D0004862204601F020FE20BB20688168164A24
:1031E000114081602168886862681043D4E9042333
:1031F0001A43104388602168E0680861206801690B
:10320000228941EA02410161204601F029FE48B9C4
:1032100021680A6C22F480220A6421680A6CA3697E
:103220001A430A642268FF21516208B110BD0020D0
:103230000121617710BD0000BFFF8FFF1FB5002186
:1032400000910191029103910068084988420CD1D4
:1032500002200090000203906846FFF7EDFB08B1E2
:10326000FEF792FC0249012008601FBD00280040C3
:103270003C0E474270B50446007F0B46012819D02A
:103280000126267702206077B2B19878D97840EA93
:10329000014558781978000240EA41300543216819
:1032A000CA204862216853204862204601F0B4FDDC
:1032B000D0B122E0022070BD5878C10603D500F0DD
:1032C000EF000A305870D87801F09BFD020458785E
:1032D00001F097FD42EA0022987801F092FD024346
:1032E000187842EA4035DAE707480540206845602B
:1032F000204601F0B5FD00B966772268FF215162D2
:103300000021217770BD00003FFFFF002DE9F04153
:103310000446007F0D46012823D04FF0010884F8B1
:103320001C80022060772068002780684FEA406098
:10333000D2B1002800DBEF70A878297840EA014676
:103340006878E978000240EA815006432168CA2083
:103350004862216853204862204601F05DFDB8B103
:103360002CE00220BDE8F081002800DBEF70287817
:1033700001F047FD0204687801F043FD42EA0022B3
:10338000A87801F03EFD0243E87842EA8056DDE786
:103390000D480640206806602068816821F480217D
:1033A0008160D5E90301084321688A681043886079
:1033B000204601F055FD08B984F81D802268FF21E0
:1033C00051622777CEE700007F7F7F0070B504460B
:1033D0000B482168C860FEF723FF05464FF47A7654
:1033E00007E000BFFEF71CFF401BB04201D90320DD
:1033F00070BD2068C0688006F4D5002070BD000054
:103400005F7F010070B5040009D0606A002540B1FB
:1034100025616561A56294F8510040B10CE001207E
:1034200070BD6068B0F5827FF4D0E561F2E784F8A2
:103430005050204600F044F8022084F851002068E3
:10344000016821F040010160A088218900F48270A8
:1034500001F404410843A18901F400610843217C7F
:1034600001F002010843217D01F001010843218B95
:1034700001F400710843217F01F03801084394F8FA
:10348000201001F080010843218D01F40051084310
:1034900021680860A069042101EA104094F8241012
:1034A00001F010010843216848602068C16921F4D7
:1034B0000061C1616565012084F85100002070BD84
:1034C000F0B587B0044614216846FDF780FA2A4A11
:1034D000216800242948022503260527914217D197
:1034E000264914310A6842F480520A60096801F4DE
:1034F00080510591016841F0010101600068694651
:1035000000F001000590E020CDE900051C482CE00A
:103510001C4A91422ED1194910310A6842F4804266
:103520000A60096801F480410591016841F00401D5
:103530000160016801F004010591016841F0020198
:103540000160006802AA00F0020005900C20CDE99D
:10355000000582E8D00069460B48FEF75FFD4FF496
:103560008060CDE900050948694602AA82E8D000DA
:10357000FEF754FD07B0F0BD003001403038024086
:1035800000000240003800400008024000040240F1
:103590002DE9F84F044690F851001D4616460F4697
:1035A000012838D1002F77D0002E75D060684FF0F9
:1035B0000408B0F5827F01D1A06810B3FEF730FE99
:1035C000824694F85000012825D04FF0010984F874
:1035D000509084F851804FF00008C4F85480A763DD
:1035E000A687E687C4F83080A4F83480A4F8368033
:1035F000C4F84080C4F84480A068B0F5004F0CD0F7
:1036000015E084F85180009313460A46204600F0E6
:103610001CF9BDE8F88F0220FBE72068016821F063
:10362000400101602068016821F480410160206848
:103630000168490603D4016841F040010160E06877
:10364000C0B134E020688168C90709D0007BA16B54
:103650000870A06B401CA063E08F401EE08709E06B
:10366000FEF7DEFDA0EB0A00A84202D3681C01D0E1
:1036700032E085B3E08F0028E4D11BE02068816848
:10368000C9070AD0C068A16B0880A06B801CA0632A
:10369000E08F401EE0870AE01BE0FEF7C1FDA0EBD3
:1036A0000A00A84202D3681C01D015E09DB1E08F4A
:1036B0000028E3D152462946204601F0E6FB08B136
:1036C0002020606584F8519084F85080606D002857
:1036D0009FD001209DE7FFE784F8519084F8508047
:1036E000032096E72DE9F84F984616468A46044689
:1036F000FEF796FD814694F8510001281ED1BAF1DB
:10370000000F73D0002E71D094F85000012815D00E
:10371000012784F85070032084F851000025656566
:10372000C4F830A0A686E686A563A587E58765640C
:103730002564A068B0F5004F03D00CE00220BDE87E
:10374000F88F2068016821F040010160206801685D
:1037500041F48041016020680168490603D4016892
:1037600041F040010160E068B0F5006F606803D08F
:1037700048B3012E27D047E008B1012E1FD1206B9E
:1037800021680088C86006E020688168890709D53B
:10379000216B0988C160206B801C2063E08E401E75
:1037A000E0860CE0FEF73CFDA0EB0901414503D3A8
:1037B000B8F1FF3F03D035E0B8F1000F32D0E08E12
:1037C0000028E1D123E0206B21680078087306E02F
:1037D0002068816889070AD5216B09780173206BFD
:1037E000401C2063E08E401EE0860DE02BE0FEF7DB
:1037F00017FDA0EB0901414503D3B8F1FF3F03D00A
:1038000010E0B8F1000F0DD0E08E0028E0D14A465C
:103810004146204601F068FB08B120206065A068A1
:1038200030B109E084F8517084F85050032086E7E5
:103830002068C1688068009084F8517004F8505F77
:1038400060680028F3D0012079E72DE9FF4F81B0AF
:103850001D46934604464FF001090E9EFEF7E0FC1C
:10386000074694F851006168012806D0B1F5827FBF
:103870003CD1A168C9BB042838D10298002871D076
:10388000BBF1000FFBD0002DF9D094F850000128B7
:103890002CD04FF0010A84F850A094F8510004286D
:1038A00002D0052084F851004FF00008C4F854807D
:1038B000C4F838B0E587A58702992163E586A58617
:1038C000C4F84080C4F8448020680168490603D4E5
:1038D000016841F040010160E068B0F5006F606888
:1038E00008D0F0B3012D49D081E0FFE7022005B0F8
:1038F000BDE8F08F08B1012D39D1206B2168008817
:10390000C860206B801C2063E08E401EE0862EE0A5
:103910002068816889070FD5E18E69B1B9F1010F7F
:103920000AD1216B0988C160206B801C2063E08E66
:10393000401EE0864FF0000920688168C9070CD05E
:10394000E18F51B1C068A16B0880A06B801CA0639F
:10395000E08F401EE0874FF00109FEF761FCC01BBD
:1039600001E00BE067E0B04201D3701C50D1E08E63
:103970000028CDD1E08F0028CAD13EE0206B21681D
:1039800000780873206B401C2063E08E401EE086A8
:103990002DE02068816889070FD5E18E69B1B9F102
:1039A000010F0AD1216B09780173206B401C206341
:1039B000E08E401EE0864FF0000920688168C9074C
:1039C0000CD0E18F51B1C068A16B0870A06B401C96
:1039D000A063E08F401EE0874FF00109FEF720FC56
:1039E000C01BB04202D3701C01D011E086B1E08E42
:1039F0000028CED1E08F0028CBD13A463146204670
:103A000001F072FA50B12020606584F8508012E015
:103A100084F851A084F85080032068E7A06818B9A2
:103A20002068C1688068009084F851A084F85080B4
:103A3000606D0028F1D0012059E770477047000001
:103A400070B590F83C20012A32D0012480F83C4027
:103A5000022280F83D2003685A689D6822F07006B3
:103A60000A6832435A60134B02689A4214D0B2F18A
:103A7000804F11D0104B9A420ED0104B9A420BD06F
:103A80000F4B9A4208D00F4B9A4205D00E4B9A42E8
:103A900002D00E4B9A4204D1496825F080031943A5
:103AA000916080F83D40002180F83C10084670BDD0
:103AB000022070BD000001400004004000080040EA
:103AC000000C00400004014000400140001800408C
:103AD00010B5040003D094F83D0010B107E00120B8
:103AE00010BD002084F83C00204600F01FF80220A2
:103AF00084F83D00211D206801F008FC012084F8B5
:103B0000460084F83E0084F83F0084F8400084F8C2
:103B1000410084F8420084F8430084F8440084F8AB
:103B2000450084F83D00002010BD000010B586B0AF
:103B3000044614216846FCF74AFF216800222A48FF
:103B4000B1F1804F0CD0294A914226D1016841F051
:103B500002010160006800F00200059006B010BD8F
:103B6000016841F001010160006800F0010005906A
:103B70001D481038016841F0010101600068022110
:103B800000F00100059001208DE80700CDE9032039
:103B900069461748FEF742FAE0E7164A91420ED10D
:103BA000016841F0040101600068002200F0040097
:103BB000059005211E20FEF70DFF1E2010E00E4A85
:103BC0009142CBD1016841F00801016000680022F8
:103BD00000F00800059005213220FEF7FBFE3220A0
:103BE000FEF7EAFEBAE70000403802400004004059
:103BF0000000024000080040000C004090F83D101A
:103C0000012901D001207047022180F83D10016890
:103C1000CA6842F00102CA6000681149884214D0A3
:103C2000B0F1804F11D00F4988420ED00E49884222
:103C30000BD00E49884208D00D49884205D00D4965
:103C4000884202D00C49884204D1816801F0070102
:103C5000062903D0016841F001010160002070478E
:103C6000000001400004004000080040000C00403B
:103C700000040140004001400018004070B50446B7
:103C800090F83C000025012817D0012684F83C60FC
:103C9000022084F83D002068826822F0770222F436
:103CA0007F4282600868502838D00DDC20284FD031
:103CB00005DC90B3102811D14AE0022070BD3028F5
:103CC00046D040280AD13BE060282FD070280DD084
:103CD000B0F5805F03D0B0F5005F12D0012584F805
:103CE0003D60002084F83C00284670BDCB68D1E9D7
:103CF0000121206801F07FFB2068816841F0770195
:103D000009E0CB68D1E90121206801F074FB20684B
:103D1000816841F480418160E1E719E0CA6849683F
:103D2000206801F03DFC5021206806E0CA6849681F
:103D3000206801F046FC6021206801F066FBCEE7B8
:103D4000CA684968206801F02BFC40212068F4E72C
:103D5000226801461046F0E770472DE9F04104461D
:103D60000068C66805694FF00007A90713D5B107B9
:103D700011D5F91E01610120207720688069800734
:103D8000204602D0FFF7E8FF04E000F0A7F8204645
:103D900000F039F92777680716D5700714D5216820
:103DA0006FF004000861022020772068806910F419
:103DB000407F204602D0FFF7CFFF04E000F08EF8EE
:103DC000204600F020F92777280715D5300713D5AE
:103DD00021686FF008000861042020772068C0691E
:103DE0008007204602D0FFF7B7FF04E000F076F826
:103DF000204600F008F92777E80616D5F00614D516
:103E000021686FF010000861082020772068C069E1
:103E100010F4407F204602D0FFF79EFF04E000F040
:103E20005DF8204600F0EFF82777E80708D0F007A4
:103E300006D021686FF001000861204600F086F985
:103E4000280608D5300606D521686FF08000086185
:103E50002046FFF7F2FD680608D5700606D52168F2
:103E60006FF040000861204600F07AF9A8060AD5F4
:103E7000B00608D521686FF0200008612046BDE833
:103E8000F041FFF7DBBDBDE8F081000010B586B062
:103E9000044614216846FCF79AFD0D4920688842C3
:103EA00014D10C480021026842F00202026000684E
:103EB00000F002000590012000900220CDE90101F0
:103EC000CDE9031069460448FEF7A8F806B010BD16
:103ED000000400403038024000040240704770B5D2
:103EE000044690F83C0000260D4601280FD0012022
:103EF00084F83C006AB1042A1DD0082A2FD00C2A6D
:103F00003FD00126002084F83C00304670BD0220DE
:103F100070BD206801F082FA2068816941F00801D3
:103F200081612068816921F00401816120688169D3
:103F30002A69114311E0206801F0A0FA2068816924
:103F400041F4006181612068816921F480618161AF
:103F5000206881692A6941EA02218161D2E72068EB
:103F600001F0C2FA2068C16941F00801C16120680E
:103F7000C16921F00401C1612068C1692A69114346
:103F800011E0206801F0E4FA2068C16941F40061A1
:103F9000C1612068C16921F48061C1612068C16983
:103FA0002A6941EA0221C161ACE710B5040003D0DF
:103FB00094F83D0010B107E0012010BD002084F806
:103FC0003C00204600F01EF8022084F83D00211D30
:103FD000206801F09BF9012084F8460084F83E0037
:103FE00084F83F0084F8400084F8410084F84200DF
:103FF00084F8430084F8440084F8450084F83D00C8
:10400000002010BD7047704710B50446022249B128
:1040100004290ED0082913D094F84100012816D0A5
:10402000012010BD94F83E000128F9D184F83E200B
:104030000FE094F83F000128F2D184F83F2008E017
:1040400094F840000128EBD184F8402001E084F886
:1040500041200122206801F0C1F916492068164A62
:10406000884201D0904203D1436C43F4004343643F
:104070002068884213D0B0F1804F10D00F49884299
:104080000DD00F4988420AD00E49884207D090428D
:1040900005D00D49884202D00C49884204D181687C
:1040A00001F00701062903D0016841F00101016018
:1040B000002010BD00000140000401400004004049
:1040C00000080040000C0040004001400018004083
:1040D00030B504460D460068002201F07FF9194B07
:1040E00041F2111120688A10984202D0164B984272
:1040F00009D1036A0B4206D1036A134203D1436C10
:1041000023F4004343642068036A0B4206D1016A2A
:10411000114203D1016821F00101016001203DB18C
:10412000042D08D0082D09D084F84100002030BDAE
:1041300084F83E00FAE784F83F00F7E784F840008F
:10414000F4E700000000014000040140006803495A
:10415000884201D1FEF7A6BB704700000010004066
:104160007047704770470000F8B50168044608685A
:10417000CA684B6910F00F0F4FF0000559D003F0DB
:10418000010602F49077374365D0C10705D0D10509
:1041900003D5616C41F001016164410705D5D90780
:1041A00003D0616C41F002016164810705D5D90734
:1041B00003D0616C41F004016164010707D502F08E
:1041C0002001314303D0616C41F008016164616CEE
:1041D00000293AD0800604D5900602D5204601F089
:1041E00030FA20684069616CC0F38010090700D480
:1041F00060B3204601F0FEF920684069400621D5F1
:104200002068143050E8001F21F0400140E80012FF
:10421000002AF5D1E06BA8B172490165E06BFDF7AA
:10422000D8FE002811D0E06B016D01B0BDE8F04070
:10423000084783060FD593060DD52046BDE8F84004
:1042400001F0FFB92046FFF78DFFF8BD2046FFF7CC
:1042500089FF6564F8BD266B2023012E7ED1C6063A
:104260007CD5D6067AD508684868009048694FF032
:10427000020640064DD5E26B106840684FF4807727
:104280000004000C3AD0A18D814237D9E085D06975
:10429000B8422DD020680C3050E8001F21F4807106
:1042A00040E80012002AF5D12068143050E8001FC1
:1042B00021F0010140E80012002AF5D120681430F5
:1042C00050E8001F21F0400140E80012002AF5D11B
:1042D00084F84230256320680C3050E8001F21F03C
:1042E000100140E80012002AF5D1E06BFDF728FE2E
:1042F0006663A08DE18D401A81B206E0A18D8142F6
:10430000A8D1D069B842A5D166632046FFF729FF3E
:10431000F8BDA08DE18D401A81B2E08D0028F7D064
:104320000029F5D020680C3050E8002F22F490725C
:1043300040E80027002FF5D12068143050E8002F06
:1043400022F0010240E80027002FF5D184F8423026
:10435000256320680C3050E8002F00E006E022F0D2
:10436000100240E80023002BF3D1CDE705062BD542
:10437000150629D594F841002128C9D1A068B0F5C7
:10438000805F01D12069B0B1206A411C216221689F
:1043900000784860E08C401E0004000CE084B7D137
:1043A0002068C16821F08001C1602068C16841F0C7
:1043B0004001C160F8BD206A0088C0F30800486071
:1043C000206A801C2062E5E74006F3D55006F1D54F
:1043D000CA68204622F04002CA6084F8413000F0EA
:1043E000C4F8F8BDE755000870B5040004D094F88F
:1043F0004100002510B106E0012070BD84F8405056
:10440000204600F023F8242084F841002068C16889
:1044100021F40051C160204601F074F9206801695F
:1044200021F4904101612068416921F02A01416134
:104430002068C16841F40051C1606564202084F89F
:10444000410084F842006563002070BD10B586B05D
:10445000044614216846FCF7BAFA184920688842D5
:1044600029D117480021026842F01002026000685A
:1044700000F01000059012481438026842F0010262
:104480000260006800F0010005904FF4C0600090E9
:104490000220CDE901010320039007200490694622
:1044A0000848FDF7BBFD002205212520FEF792FA02
:1044B0002520FEF781FA06B010BD00000010014073
:1044C000443802400000024070472DE9F84304469A
:1044D00090F84100984616460D46202802D002204A
:1044E000BDE8F88385B17EB100206064212084F8A6
:1044F0004100FDF795FEA6848146E684A06820274A
:10450000B0F5805F02D003E00120E9E7206910B137
:104510002E4600250EE000260CE08021204601F00A
:1045200077F9A8B9C6B116F8010B21684860E08C8C
:10453000401EE084E08C4B464FF00002CDF8008036
:104540000028EAD14FF04001204601F061F940B166
:1045500084F841700320C3E735F8020BC0F308006C
:10456000E3E784F841700020BAE77047FEE701688E
:104570004A69D24352050FD46FF480624A61002128
:1045800040F8301F202242738173026942F0040216
:104590000261017301207047002070472DE9F84F38
:1045A0000446C06A1E4693460D4621680A6842F4D6
:1045B00080620A60082807D0012805D010F5803FE6
:1045C00002D0206B112804D12068016841F4807169
:1045D00001604FF001195B460022494620460096D3
:1045E00000F0CCF84FF4007840B120680068C005B6
:1045F00001D5C4F840800320BDE8F88F2069DFF8BA
:1046000084A0B0F5804F0FD00620216800EAD517AE
:1046100047F0F000086133465A460AF10601204689
:1046200000F0F4F858BB03E0E8B240F001001CE0F1
:104630002168E8B2086133465A465146204600F0E8
:10464000E5F8E0B92068416981690091016841F4A9
:10465000807101605B46002249462046009600F0CA
:104660008DF80028C1D147F0F10021680861334678
:104670005A465146204600F0C9F80028BCD0012017
:10468000BAE7000002000100F8B50446C06A1E4601
:104690000D461746082807D0012805D010F5803FA1
:1046A00002D0206B122804D12068016841F4807187
:1046B0000160134600224FF001112046009600F0E1
:1046C0005DF840B120680068C00502D54FF4007065
:1046D00020640320F8BD2069B0F5804F0ED006207D
:1046E000216800EAD51040F0F000086133463A46F0
:1046F0000B49204600F08AF878B902E005F0FE0088
:1047000000E0E8B221680861054933463A46891F4E
:10471000204600F07BF80028DCD00120F8BD000026
:104720000800010070B516460D4604461EE02046FE
:10473000FFF71DFF08B1012070BD681C16D0FDF702
:104740006FFD801BA84200D885B920684069C0432E
:1047500040070BD5002044F8300F20216173A0736F
:10476000216941F0200121612073E4E7206840695C
:10477000C0434007DBD4002070BD00002DE9F047A6
:10478000984617460D460446C1F30746DDF82090CB
:104790002AE000BFB8F1FF3F26D0FDF741FDA0EBB6
:1047A0000901414502D8B8F1000F1DD12068012E42
:1047B00016D0806925EA00000004000C12D0002009
:1047C000B84211D1002044F8300F20216173A0734A
:1047D000216941F02001216120730120BDE8F087AB
:1047E0004069E7E70120EBE72068012E0AD08069E5
:1047F00025EA00000004000C06D00020B842C9D011
:104800000020EBE74069F3E70120F7E72DE9F047E7
:10481000984616460D4604464FF000094FF0200A10
:10482000C1F3074723E020684069C043400515D421
:104830002068016841F40071016021686FF48060B4
:104840004861C4F8309084F83DA084F83E90216C13
:1048500041F00401216484F83C9021E0701C06D0F2
:10486000FDF7DEFCA0EB0800B04203D816B1012F23
:104870001FD021E02068012F15D0806925EA0000B3
:104880000004000C18D000BF44F8309F84F80DA03D
:1048900084F80E90216941F02001216184F80C9088
:1048A0000120BDE8F087406925EA00000004000C03
:1048B000EAD12068406901E02068806925EA0000AB
:1048C0000004000CAFD1ECE72DE9F0410025904643
:1048D0000E460446202728E04069C043C0060CD499
:1048E00054F8301B6FF01000486144F81059677796
:1048F000A577206A2062257714E0FDF791FCA0EBF4
:104900000800B04200D886B920684069C04340061C
:104910000BD544F8305F6773A573206940F0200021
:10492000206125730120BDE8F08120684169C943F9
:104930004906D1D40020F6E770B516460D46044668
:104940001EE02046FFF713FE08B1012070BD681C71
:1049500016D0FDF765FC801BA84200D885B92068F9
:104960004069C04300060BD5002044F8300F2021D9
:104970006173A073216941F0200121612073E4E794
:1049800020684069C0430006DBD4002070BD0000F1
:104990001FB500211648009101910291134A03911D
:1049A00002604FF48032C0E901210161017680F894
:1049B0002010104AC0E90A210124C461C16080F8B6
:1049C00030104461FDF78BF908B172B6FEE7102094
:1049D000CDE900040720029069460548FDF7D6F8A6
:1049E000002801D072B6FEE71FBD00000020014084
:1049F000540100200100000F2DE9F04387B014217D
:104A00006846FBF7E4FF38480024016841F01001D4
:104A10000160016801F010010591016841F0040195
:104A20000160016801F004010591016841F0200175
:104A30000160016801F020010591016841F08001E9
:104A40000160016801F080010591016841F00101F8
:104A50000160016801F001010591016841F0020166
:104A600001600068214F00F0020005900022022141
:104A70003846FDF7D0FB01221C213846FDF7CBFB61
:104A8000DFF86C80002230214046FDF7C4FB012294
:104A9000DFF86090160331464846FDF7BCFB1F2047
:104AA00001258DE8310069461348FDF7B7FA1E204D
:104AB0000090CDE90154694638460394FDF7AEFAFB
:104AC00030200090CDE90154694640460394FDF73B
:104AD000A5FA0096CDE90154694648460394FDF7CE
:104AE0009DFA07B0BDE8F083303802400000024074
:104AF00000080240000402400010024010B586B0D9
:104B000014216846FBF763FF2248002420490594DE
:104B1000C0E900147F218160FF21C0E903144461D2
:104B20008461FEF73DFB08B172B6FEE7012119482A
:104B3000FEF7E0FA45F2AA52904227D0012115482B
:104B4000FEF7DDFA8DF800408DF801408DF8024047
:104B50004FF48020CDE90340002269460D48FEF75E
:104B6000D5FB08B172B6FEE701208DF814008DF870
:104B700015008DF816008DF81740002205A905488C
:104B8000FEF778FB002801D072B6FEE706B010BD34
:104B900000280040F00100200F4810B50D490160C9
:104BA0004FF48271416000218160C1604FF4007256
:104BB0000161C0E905120822C0E907214162816252
:104BC0000A21C162FEF71EFC002801D072B6FEE782
:104BD00010BD000000300140100200200F4810B549
:104BE0000D4901604FF48271416000218160C16014
:104BF0004FF400720161C0E905121822C0E90721D3
:104C0000416281620A21C162FEF7FCFB002801D0EB
:104C100072B6FEE710BD00000038004068020020B8
:104C200010B586B0002416480094019402940394B1
:104C300004944FF08041059401605321C0E90114B0
:104C4000611EC0E9031480218161FEF741FF08B1B4
:104C500072B6FEE74FF48050009069460848FFF7AF
:104C60000DF808B172B6FEE7049404A9044805944F
:104C7000FEF7E6FE002801D072B6FEE706B010BDD2
:104C8000C002002010B58EB0002407940894099447
:104C90000A940B941C2168460C94FBF798FE1E485E
:104CA0001C4901605321C0E901144FF6FF71C0E9AE
:104CB00003148461FEF70CFF08B172B6FEE74FF4EF
:104CC0008050079007A91448FEF7D8FF08B172B6C4
:104CD000FEE71148FFF769F908B172B6FEE70B94D9
:104CE0000BA90D480C94FEF7ABFE08B172B6FEE7B7
:104CF0006020CDE900040294082269460648049425
:104D0000FFF7EDF808B172B6FEE70348FFF7BEF80B
:104D10000EB010BD000400400803002010B586B09E
:104D200000241748009401940294039404941349B6
:104D3000059401604AF20F41C0E901144FF6FF717A
:104D4000C0E903148461FEF7C3FE08B172B6FEE742
:104D50004FF48050009069460948FEF78FFF08B174
:104D600072B6FEE7049404A905480594FEF768FEB0
:104D7000002801D072B6FEE706B010BD0008004062
:104D80005003002010B586B0002417480094019409
:104D900002940394049413490594016042F2CF01F4
:104DA000C0E901146321C0E903148461FEF790FE99
:104DB00008B172B6FEE74FF48050009069460A4889
:104DC000FEF75CFF08B172B6FEE7049404A906483A
:104DD0000594FEF735FE002801D072B6FEE706B056
:104DE00010BD0000000C004098030020FEE7FEE725
:104DF000010901EB810100F00F0000EB4100C0B29E
:104E00007047002102E00A38C0B2491C0A28FAD2D1
:104E1000090740EA116070472DE9F0410446006837
:104E20000025C168490618D4C16841F08001C160FD
:104E3000FDF7F6F906464FF47A78042707E000BF3D
:104E4000FDF7EEF9801B404501D967770125206801
:104E5000C068400601D4002DF2D02846BDE8F0819C
:104E600070B5044600680025C16821F08001C1606A
:104E700020688068800606D42046FEF7A7FA10B1A5
:104E8000042060770125284670BDF8B504464068C7
:104E90004FF48273984221D1A0684FF48065B0F539
:104EA000004F01D0A8420AD12068066826F04006CB
:104EB00006606068984211D1A068A8420ED00092A6
:104EC0000B4600228021204600F044F8002804D040
:104ED000606D40F0200060650320F8BD00920B4635
:104EE00000220121EFE70000F8B515460E460B46FB
:104EF000009204460122022100F02CF8A0B91348C8
:104F000013490068B0FBF1F04FF47A714843009008
:104F10006068B0F5827F0DD13346002280212046A3
:104F2000009500F017F870B1606D40F020006065EA
:104F30000320F8BD009830B1401E009020688068C2
:104F4000C0430006F6D50020F8BD00002C0000206C
:104F500000366E012DE9F8431E4691468846044608
:104F6000089DFDF75DF9401B351AFDF759F9074615
:104F700026480068C0F3CB3068430AE0701C09D0B3
:104F8000FDF74EF9C01BA8420FD275B10098B8B317
:104F9000401E00902068816838EA010033D000216B
:104FA0004945EBD10020BDE8F8832068416821F035
:104FB000E00141606068B0F5827F0BD1A068B0F578
:104FC000004F02D0B0F5806F04D12068016821F055
:104FD00040010160A06AB0F5005F09D12068016856
:104FE00021F4005101602068016841F40051016022
:104FF000012084F85100002084F850000320D2E7FB
:10500000FFE70025C6E70121CAE700002C000020C9
:10501000A0B002F06FF835A280216846FBF734FAA1
:1050200000226946002804DC17E0401E00280A54CC
:1050300006DD0B1813F8013C0D2BF6D00A2BF4D02B
:105040000D230B5401440A234B708A70801C82B2DA
:10505000694664233048FFF738FA03F09BF90446A9
:105060002E4D05E09DF81D109DF81C0002F0D2FFAA
:1050700000231A4607A9286803F0C2F90028F1D0D6
:1050800003F088F9011B642902D3044603F000F9F8
:1050900003F090F802F080F920B3684602F05EFA5F
:1050A0009DF80800E0B11E490DF10C0C0FC98CE809
:1050B0000F00BDF80000ADF80E00BDF80200ADF81D
:1050C0001000BDF80400ADF81200BDF80600ADF800
:1050D0001400144800231A4603A9006803F0EEF9EF
:1050E00002F04AF9142003F007F9C1E75B4C4F477F
:1050F0005D204261636B67726F756E6420746173CB
:105100006B20737461727465642C20465320726541
:105110006164790D0A000000E00300201000002007
:1051200024CE0008140000201FB500F04FFF0F4CE4
:1051300000F0A4FF12E002A800F028FF9DF808008C
:105140008DF800009DF809008DF8010003980023F8
:1051500001901A466946206803F0B0F900F030FF6C
:105160000028E8D10A2003F0C7F8E1E7100000208A
:105170001FB5054C00231A466946206803F040F924
:10518000212003F0B9F8F5E7140000202DED028B83
:1051900088B01F4D9FED1F8ADFED1F8A4FF4FA760E
:1051A00000231A466946286803F02AF928B99DF8B1
:1051B00004009DED000A03F023FB03F041FA03F025
:1051C000CBFA20EE080A02A8C0EE280ABDEEE00ADB
:1051D00010EE104A00F0D6FD0398211A0A2907DDC7
:1051E0005FF0010000F038FE304600F04DFE0BE0AD
:1051F00011F10A0F4FF00000F4DB00F045FE074804
:105200000121006803F09CF8322003F075F8C7E72D
:1052100018000020000048450000B4431C00002096
:1052200010B54FF0E020006907F022FB012803D001
:10523000BDE8104006F0E2BF10BD000030B593B0ED
:1052400030216846FBF7C3FB14210CA8FBF7BFFB1A
:105250001F480025016841F080510160006800F09E
:10526000805011901B48016841F480410160006842
:10527000022400F480401190092000904FF4803007
:1052800001900120CDE905048005079008200890D1
:105290004FF4A870CDE9090404200B906846FDF78F
:1052A00073FD08B172B6FEE70CA90F2081E831004A
:1052B0004FF4A0500F904FF48050109005210CA88F
:1052C000FDF758FC002801D072B6FEE713B030BDE0
:1052D00040380240007000400248016841F470010B
:1052E0000160704788ED00E00148FEF736BD000020
:1052F000500300200148FEF730BD00009803002055
:105300000148FEF72ABD000028040020F0B502681D
:10531000274B284D284E294F294C4FF0804C98425E
:1053200009D0604507D0A84205D0B04203D0B842AA
:1053300001D0A04204D122F0700E4A6842EA0E0267
:1053400098421BD0604519D0A84217D0B04215D062
:10535000B84213D0A04211D01A4DA8420ED01A4D17
:10536000A8420BD0194DA84208D0194DA84205D02B
:10537000184DA84202D0184DA84203D122F440751E
:10538000CA682A434D6922F080022A438D68C562AB
:105390000D688562984201D0A04201D1096901637C
:1053A000016841F004010160012141610260F0BD2A
:1053B000000001400004004000080040000C0040D4
:1053C0000004014000400140004401400048014009
:1053D00000180040001C00400020004010B501F003
:1053E0001F030121046A99408C430462016A9A40B8
:1053F0001143016210BD10B5846842EA032224F40F
:105400007F440A432243826010BD826822F070020A
:105410000A4342F00701816070470000F0B5036A5B
:10542000026A22F00102026242688469124E24F08C
:1054300073050C682C4323F002058B682B430D4D3C
:10544000A84201D0B04205D123F00807CB683B4306
:1054500023F00403A84201D0B04205D14D6922F4E3
:10546000407215438A692A434260846149684163F6
:105470000362F0BD0000014000040140F0B5026A83
:10548000036A23F010030362436884690D6824F4FF
:10549000E64444EA05248D6822F0200242EA05121F
:1054A0000F4D104EA84201D0B04206D1CF6822F075
:1054B000800242EA071222F04002A84201D0B04224
:1054C00007D14D6923F4406343EA85038D6943EABC
:1054D000850343608461496881630262F0BD000016
:1054E0000000014000040140F0B5026A036A23F4A1
:1054F000807303624368C46922F4007224F0730568
:105500000C68124E2C438D6842EA05220E4DA842CB
:1055100001D0B04206D1CF6822F4006242EA0722ED
:1055200022F48062A84201D0B04207D14D6923F431
:10553000405343EA05138D6943EA05134360C46190
:105540004968C1630262F0BD0000014000040140EF
:1055500030B5046A026A22F4805202624268C3696A
:105560000D6823F4E64343EA05238D6824F40054D0
:1055700044EA0534084DA84202D0084DA84204D19F
:105580004D6922F4804242EA85124260C361496853
:105590000164046230BD00000000014000040140CD
:1055A00010B5036A046A24F001040462846924F0DB
:1055B000F00444EA021423F00A020A4384610262FE
:1055C00010BD10B5036A046A24F0100404628469F3
:1055D00023F0A00324F4704444EA023243EA0111A8
:1055E0008261016210BD10B5806B0021C185FEF79C
:1055F000B9FD10BD01680C3151E8002F22F4907202
:1056000041E80023002BF5D10168143151E8002F47
:1056100022F0010241E80023002BF5D1016B0129A2
:1056200009D101680C3151E8002F22F0100241E845
:105630000023002BF5D1202180F8421000210163C6
:10564000704708B590F84210222901D0022008BD09
:1056500082684FF480539A4201D1016921B1816A75
:105660009A421BD04AB10AE00268816A5268C2F3CA
:1056700008020A80816A891C08E0026972B1026826
:10568000526802F07F020A70816A491C8162C18DF2
:10569000491E0904090CC18503D01BE00268526849
:1056A000F1E70168CA6822F02002CA600168CA688E
:1056B00022F48072CA6001684A6922F001024A61DC
:1056C000202180F8421000214163026B012A03D09F
:1056D000FEF7FAFE002008BD016301680C3151E8B5
:1056E000002F22F0100241E80023002BF5D10168C1
:1056F0000A68D20602D50A6849680091818DFEF7D2
:1057000030FDE7E770B5044600680169E26821F4FE
:105710004051114301612169A068E2690843616950
:10572000114308432168CA6849F20C639A43024353
:10573000CA6020684169A26921F440711143416146
:1057400031492068884202D03049884202D1FDF7B1
:10575000DBFA01E0FDF7C8FAE269002319216425AC
:105760003226B2F5004F626828D0A0FB0101930FEA
:105770009200FAF711FE0146B0FBF5F06FF0180247
:10578000504301EB800006EB0010B0FBF5F000F099
:10579000F002B1FBF5F002EB0012B1FBF5F06FF097
:1057A0001803584301EB800006EB0010B0FBF5F046
:1057B00000F00F0021681044886070BDA0FB01015B
:1057C00092185B41FAF7E8FD0146B0FBF5F00201E3
:1057D000B1FBF5F06FF01803584301EB800006EBC6
:1057E000C000B0FBF5F000F0F80002EB4002B1FBA6
:1057F000F5F0584301EB800006EBC000B0FBF5F07C
:1058000000F00700D6E7000000100140001401403E
:105810002DE9F843984617460D460446089E24E0B5
:10582000701C22D0FCF7FCFCA0EB0800B0421AD898
:10583000CEB12068C168490717D5802D15D0402DFD
:1058400013D00168C94309070FD4016800254068D7
:1058500000902046FFF7CEFE0820606484F8405098
:105860000120BDE8F8830320FBE72068006835EAE3
:10587000000004D00020B842D2D00020F1E701207F
:10588000F9E700000148FEF76FBC0000E0030020CC
:10589000FEE703B401984100009850EAC12018BF08
:1058A00004204A0D18BF40F0010040F2FF72B2EB35
:1058B000515F08BF40F00200012808BF052002B078
:1058C00070474100080218BF04200A0E18BF40F0BC
:1058D00001004FF07F4232EA010108BF40F00200B0
:1058E000012808BF052070470907090E002804DBBE
:1058F00000F1E02080F80014704700F00F0000F184
:10590000E02080F8141D704710EE101A08B5444AC4
:105910006846B2EB410F28D94FF0E640B0EB410F9B
:1059200094BF00204FF0FF3000900098002861DB0A
:1059300060EE000A10F0010F45D010F0020FDFED0D
:10594000391A9FED391A00EEE11ADFED381A40EEF0
:10595000811A21EEA01AF0EE400A40EE010A08BFBB
:10596000F1EE600AB0EE600A08BD314B21F0004252
:1059700093423CD911F0004FDFED2E0A20EE201AA1
:10598000DFED2D0A19BF31EE601A71EE200A31EEFB
:10599000201A71EE600ABDEEE01A11EE100A9FEDBA
:1059A000271A00F0030000EEC10A9FED251A0090AF
:1059B00000EEC10A9FED231A00EEC10A9FED221AE4
:1059C00000EEC10AB1E79FED211A9FED210A10F008
:1059D000020F00EE810A9FED1F1A00EE801AB7EE4B
:1059E000000A00EE810A18BFB1EE400A08BD00F0BF
:1059F0000FF99AE710EE100A4000B0F17F4F3CBF5C
:105A0000B7EE000A08BD07D14FF00100FBF77AF8A6
:105A1000BDE8084000F0ECB8BDE8084000F0E4B88C
:105A2000B61F927E336D4C39DA82083CA0AA2ABE9A
:105A3000490E494683F9223F0000004B0000C93F50
:105A400000A0FD390020A2331A61342CB93AB2BA51
:105A5000CA9F2A3DDDFFFFBE00B510EE101A2DEDE6
:105A6000028B81B0524A6846B2EB410F2ED94FF0FB
:105A7000E640B0EB410F94BF00204FF0FF300090A4
:105A80000098B0EE408A00286ADB10F0010F4BD07E
:105A900068EE080A9FED471A9FED470A00EE810A5B
:105AA0009FED461A10F0020F00EE801AB7EE000AC2
:105AB00000EE810A02BF01B0BDEC028B00BD00BF49
:105AC00001B0B1EE400ABDEC028B00BD3C4B21F0B1
:105AD0000042934241D911F0004FDFED3A0A20EE27
